{
  "contractName": "system_process",
  "abi": [
    {
      "inputs": [],
      "payable": false,
      "stateMutability": "nonpayable",
      "type": "constructor"
    },
    {
      "constant": false,
      "inputs": [
        {
          "internalType": "address",
          "name": "_adrs",
          "type": "address"
        }
      ],
      "name": "_createNewVoter",
      "outputs": [],
      "payable": false,
      "stateMutability": "nonpayable",
      "type": "function"
    },
    {
      "constant": true,
      "inputs": [
        {
          "internalType": "uint16",
          "name": "_selection_id",
          "type": "uint16"
        }
      ],
      "name": "get_topic",
      "outputs": [
        {
          "internalType": "string",
          "name": "",
          "type": "string"
        }
      ],
      "payable": false,
      "stateMutability": "view",
      "type": "function"
    },
    {
      "constant": true,
      "inputs": [
        {
          "internalType": "address",
          "name": "_UserId",
          "type": "address"
        }
      ],
      "name": "get_available_launched",
      "outputs": [
        {
          "internalType": "uint256[]",
          "name": "",
          "type": "uint256[]"
        }
      ],
      "payable": false,
      "stateMutability": "view",
      "type": "function"
    },
    {
      "constant": true,
      "inputs": [
        {
          "internalType": "uint16",
          "name": "_selection_id",
          "type": "uint16"
        },
        {
          "internalType": "address",
          "name": "_UserId",
          "type": "address"
        }
      ],
      "name": "find_available_item",
      "outputs": [
        {
          "internalType": "uint16[]",
          "name": "",
          "type": "uint16[]"
        }
      ],
      "payable": false,
      "stateMutability": "view",
      "type": "function"
    },
    {
      "constant": false,
      "inputs": [
        {
          "internalType": "address",
          "name": "_id",
          "type": "address"
        },
        {
          "internalType": "string",
          "name": "topic",
          "type": "string"
        }
      ],
      "name": "launch_vote",
      "outputs": [],
      "payable": false,
      "stateMutability": "nonpayable",
      "type": "function"
    },
    {
      "constant": false,
      "inputs": [
        {
          "internalType": "uint16",
          "name": "_selection_id",
          "type": "uint16"
        }
      ],
      "name": "delete_vote",
      "outputs": [],
      "payable": false,
      "stateMutability": "nonpayable",
      "type": "function"
    },
    {
      "constant": true,
      "inputs": [
        {
          "internalType": "address",
          "name": "_id",
          "type": "address"
        }
      ],
      "name": "read_topic",
      "outputs": [
        {
          "internalType": "uint16",
          "name": "",
          "type": "uint16"
        },
        {
          "internalType": "string",
          "name": "",
          "type": "string"
        },
        {
          "internalType": "uint256",
          "name": "",
          "type": "uint256"
        },
        {
          "internalType": "uint8",
          "name": "",
          "type": "uint8"
        }
      ],
      "payable": false,
      "stateMutability": "view",
      "type": "function"
    },
    {
      "constant": true,
      "inputs": [
        {
          "internalType": "uint16",
          "name": "selection_id",
          "type": "uint16"
        },
        {
          "internalType": "uint16",
          "name": "_index",
          "type": "uint16"
        }
      ],
      "name": "read_item",
      "outputs": [
        {
          "internalType": "string",
          "name": "",
          "type": "string"
        }
      ],
      "payable": false,
      "stateMutability": "view",
      "type": "function"
    },
    {
      "constant": true,
      "inputs": [
        {
          "internalType": "uint16",
          "name": "_selection_id",
          "type": "uint16"
        },
        {
          "internalType": "string",
          "name": "_item",
          "type": "string"
        }
      ],
      "name": "read_voter_candidate_num",
      "outputs": [
        {
          "internalType": "uint256",
          "name": "",
          "type": "uint256"
        },
        {
          "internalType": "uint256",
          "name": "",
          "type": "uint256"
        }
      ],
      "payable": false,
      "stateMutability": "view",
      "type": "function"
    },
    {
      "constant": true,
      "inputs": [
        {
          "internalType": "uint16",
          "name": "_selection_id",
          "type": "uint16"
        },
        {
          "internalType": "string",
          "name": "_item",
          "type": "string"
        },
        {
          "internalType": "uint256",
          "name": "_index",
          "type": "uint256"
        }
      ],
      "name": "read_voter",
      "outputs": [
        {
          "internalType": "address",
          "name": "",
          "type": "address"
        }
      ],
      "payable": false,
      "stateMutability": "view",
      "type": "function"
    },
    {
      "constant": true,
      "inputs": [
        {
          "internalType": "uint16",
          "name": "_selection_id",
          "type": "uint16"
        },
        {
          "internalType": "string",
          "name": "_item",
          "type": "string"
        },
        {
          "internalType": "uint256",
          "name": "_index",
          "type": "uint256"
        }
      ],
      "name": "read_cand",
      "outputs": [
        {
          "internalType": "string",
          "name": "",
          "type": "string"
        }
      ],
      "payable": false,
      "stateMutability": "view",
      "type": "function"
    },
    {
      "constant": false,
      "inputs": [
        {
          "internalType": "uint16",
          "name": "_selection_id",
          "type": "uint16"
        },
        {
          "internalType": "string",
          "name": "_item",
          "type": "string"
        },
        {
          "internalType": "address",
          "name": "_ValidVoter",
          "type": "address"
        }
      ],
      "name": "SetVoter",
      "outputs": [],
      "payable": false,
      "stateMutability": "nonpayable",
      "type": "function"
    },
    {
      "constant": false,
      "inputs": [
        {
          "internalType": "uint16",
          "name": "_selection_id",
          "type": "uint16"
        },
        {
          "internalType": "string",
          "name": "_item",
          "type": "string"
        },
        {
          "internalType": "address",
          "name": "_ValidVoter",
          "type": "address"
        }
      ],
      "name": "DelVoter",
      "outputs": [],
      "payable": false,
      "stateMutability": "nonpayable",
      "type": "function"
    },
    {
      "constant": false,
      "inputs": [
        {
          "internalType": "uint16",
          "name": "_selection_id",
          "type": "uint16"
        },
        {
          "internalType": "string",
          "name": "_item",
          "type": "string"
        },
        {
          "internalType": "string",
          "name": "_cand",
          "type": "string"
        }
      ],
      "name": "SetCandidate",
      "outputs": [],
      "payable": false,
      "stateMutability": "nonpayable",
      "type": "function"
    },
    {
      "constant": false,
      "inputs": [
        {
          "internalType": "uint16",
          "name": "_selection_id",
          "type": "uint16"
        },
        {
          "internalType": "string",
          "name": "_item",
          "type": "string"
        },
        {
          "internalType": "string",
          "name": "_cand",
          "type": "string"
        }
      ],
      "name": "DelCandidate",
      "outputs": [],
      "payable": false,
      "stateMutability": "nonpayable",
      "type": "function"
    },
    {
      "constant": false,
      "inputs": [
        {
          "internalType": "uint16",
          "name": "_selection_id",
          "type": "uint16"
        },
        {
          "internalType": "string",
          "name": "_item",
          "type": "string"
        }
      ],
      "name": "SetItem",
      "outputs": [],
      "payable": false,
      "stateMutability": "nonpayable",
      "type": "function"
    },
    {
      "constant": false,
      "inputs": [
        {
          "internalType": "uint16",
          "name": "_selection_id",
          "type": "uint16"
        },
        {
          "internalType": "string",
          "name": "_item",
          "type": "string"
        }
      ],
      "name": "DelItem",
      "outputs": [],
      "payable": false,
      "stateMutability": "nonpayable",
      "type": "function"
    },
    {
      "constant": false,
      "inputs": [
        {
          "internalType": "uint16",
          "name": "_selection_id",
          "type": "uint16"
        }
      ],
      "name": "set_vote_end",
      "outputs": [],
      "payable": false,
      "stateMutability": "nonpayable",
      "type": "function"
    },
    {
      "constant": false,
      "inputs": [
        {
          "internalType": "uint16",
          "name": "_selection_id",
          "type": "uint16"
        }
      ],
      "name": "set_vote_start",
      "outputs": [],
      "payable": false,
      "stateMutability": "nonpayable",
      "type": "function"
    },
    {
      "constant": true,
      "inputs": [
        {
          "internalType": "uint16",
          "name": "_selection_id",
          "type": "uint16"
        }
      ],
      "name": "find_state",
      "outputs": [
        {
          "internalType": "uint8",
          "name": "",
          "type": "uint8"
        }
      ],
      "payable": false,
      "stateMutability": "view",
      "type": "function"
    },
    {
      "constant": false,
      "inputs": [
        {
          "internalType": "address",
          "name": "_adrs",
          "type": "address"
        }
      ],
      "name": "CreateNewAccount",
      "outputs": [],
      "payable": false,
      "stateMutability": "nonpayable",
      "type": "function"
    },
    {
      "constant": false,
      "inputs": [
        {
          "internalType": "uint16",
          "name": "_selection_id",
          "type": "uint16"
        },
        {
          "internalType": "address",
          "name": "_UserId",
          "type": "address"
        },
        {
          "internalType": "string",
          "name": "_item",
          "type": "string"
        },
        {
          "internalType": "string",
          "name": "_cand",
          "type": "string"
        }
      ],
      "name": "send_ballot",
      "outputs": [],
      "payable": false,
      "stateMutability": "nonpayable",
      "type": "function"
    },
    {
      "constant": true,
      "inputs": [
        {
          "internalType": "uint16",
          "name": "_selection_id",
          "type": "uint16"
        },
        {
          "internalType": "string",
          "name": "_item",
          "type": "string"
        },
        {
          "internalType": "string",
          "name": "_candidate",
          "type": "string"
        }
      ],
      "name": "view_result",
      "outputs": [
        {
          "internalType": "uint256",
          "name": "",
          "type": "uint256"
        }
      ],
      "payable": false,
      "stateMutability": "view",
      "type": "function"
    }
  ],
  "bytecode": "0x60806040526000600460006101000a81548161ffff021916908361ffff16021790555034801561002e57600080fd5b5033600660006101000a81548173ffffffffffffffffffffffffffffffffffffffff021916908373ffffffffffffffffffffffffffffffffffffffff16021790555061651580620000806000396000f3fe608060405234801561001057600080fd5b506004361061014d5760003560e01c80636ae40a70116100c3578063c188c0cc1161007c578063c188c0cc14610e65578063c8e7054914610f1e578063d814b12014611092578063d87949ff1461113d578063e9b1d644146111e4578063f9161458146113445761014d565b80636ae40a7014610ac95780636d50d7cc14610afb57806395b8d0af14610b945780639b6ee40d14610c74578063b0d87e5914610d3d578063bf30287614610e215761014d565b8063293129ae11610115578063293129ae146106285780632e1a59c21461066c5780633a2583ea146107b85780634b75d0a6146108045780635b83cfb5146108ed57806367996d10146109b65761014d565b80630ab14b09146101525780630bbff396146102d25780631584807614610432578063187765a2146104645780632591f9cd1461053f575b600080fd5b6102d06004803603608081101561016857600080fd5b81019080803561ffff169060200190929190803573ffffffffffffffffffffffffffffffffffffffff169060200190929190803590602001906401000000008111156101b357600080fd5b8201836020820111156101c557600080fd5b803590602001918460018302840111640100000000831117156101e757600080fd5b91908080601f016020809104026020016040519081016040528093929190818152602001838380828437600081840152601f19601f8201169050808301925050505050505091929192908035906020019064010000000081111561024a57600080fd5b82018360208201111561025c57600080fd5b8035906020019184600183028401116401000000008311171561027e57600080fd5b91908080601f016020809104026020016040519081016040528093929190818152602001838380828437600081840152601f19601f820116905080830192505050505050509192919290505050611376565b005b610430600480360360608110156102e857600080fd5b81019080803561ffff1690602001909291908035906020019064010000000081111561031357600080fd5b82018360208201111561032557600080fd5b8035906020019184600183028401116401000000008311171561034757600080fd5b91908080601f016020809104026020016040519081016040528093929190818152602001838380828437600081840152601f19601f820116905080830192505050505050509192919290803590602001906401000000008111156103aa57600080fd5b8201836020820111156103bc57600080fd5b803590602001918460018302840111640100000000831117156103de57600080fd5b91908080601f016020809104026020016040519081016040528093929190818152602001838380828437600081840152601f19601f820116905080830192505050505050509192919290505050611740565b005b6104626004803603602081101561044857600080fd5b81019080803561ffff16906020019092919050505061186f565b005b61053d6004803603604081101561047a57600080fd5b81019080803573ffffffffffffffffffffffffffffffffffffffff169060200190929190803590602001906401000000008111156104b757600080fd5b8201836020820111156104c957600080fd5b803590602001918460018302840111640100000000831117156104eb57600080fd5b91908080601f016020809104026020016040519081016040528093929190818152602001838380828437600081840152601f19601f820116905080830192505050505050509192919290505050611a3d565b005b6106266004803603606081101561055557600080fd5b81019080803561ffff1690602001909291908035906020019064010000000081111561058057600080fd5b82018360208201111561059257600080fd5b803590602001918460018302840111640100000000831117156105b457600080fd5b91908080601f016020809104026020016040519081016040528093929190818152602001838380828437600081840152601f19601f820116905080830192505050505050509192919290803573ffffffffffffffffffffffffffffffffffffffff169060200190929190505050611d57565b005b61066a6004803603602081101561063e57600080fd5b81019080803573ffffffffffffffffffffffffffffffffffffffff169060200190929190505050611e93565b005b61073d6004803603606081101561068257600080fd5b81019080803561ffff169060200190929190803590602001906401000000008111156106ad57600080fd5b8201836020820111156106bf57600080fd5b803590602001918460018302840111640100000000831117156106e157600080fd5b91908080601f016020809104026020016040519081016040528093929190818152602001838380828437600081840152601f19601f82011690508083019250505050505050919291929080359060200190929190505050611e9f565b6040518080602001828103825283818151815260200191508051906020019080838360005b8381101561077d578082015181840152602081019050610762565b50505050905090810190601f1680156107aa5780820380516001836020036101000a031916815260200191505b509250505060405180910390f35b6107e8600480360360208110156107ce57600080fd5b81019080803561ffff169060200190929190505050611fe6565b604051808260ff1660ff16815260200191505060405180910390f35b6108eb6004803603606081101561081a57600080fd5b81019080803561ffff1690602001909291908035906020019064010000000081111561084557600080fd5b82018360208201111561085757600080fd5b8035906020019184600183028401116401000000008311171561087957600080fd5b91908080601f016020809104026020016040519081016040528093929190818152602001838380828437600081840152601f19601f820116905080830192505050505050509192919290803573ffffffffffffffffffffffffffffffffffffffff169060200190929190505050612017565b005b6109b46004803603604081101561090357600080fd5b81019080803561ffff1690602001909291908035906020019064010000000081111561092e57600080fd5b82018360208201111561094057600080fd5b8035906020019184600183028401116401000000008311171561096257600080fd5b91908080601f016020809104026020016040519081016040528093929190818152602001838380828437600081840152601f19601f8201169050808301925050505050505091929192905050506123ed565b005b610a87600480360360608110156109cc57600080fd5b81019080803561ffff169060200190929190803590602001906401000000008111156109f757600080fd5b820183602082011115610a0957600080fd5b80359060200191846001830284011164010000000083111715610a2b57600080fd5b91908080601f016020809104026020016040519081016040528093929190818152602001838380828437600081840152601f19601f820116905080830192505050505050509192919290803590602001909291905050506125e0565b604051808273ffffffffffffffffffffffffffffffffffffffff1673ffffffffffffffffffffffffffffffffffffffff16815260200191505060405180910390f35b610af960048036036020811015610adf57600080fd5b81019080803561ffff1690602001909291905050506126ae565b005b610b3d60048036036020811015610b1157600080fd5b81019080803573ffffffffffffffffffffffffffffffffffffffff16906020019092919050505061304f565b6040518080602001828103825283818151815260200191508051906020019060200280838360005b83811015610b80578082015181840152602081019050610b65565b505050509050019250505060405180910390f35b610bd660048036036020811015610baa57600080fd5b81019080803573ffffffffffffffffffffffffffffffffffffffff169060200190929190505050613377565b604051808561ffff1661ffff168152602001806020018481526020018360ff1660ff168152602001828103825285818151815260200191508051906020019080838360005b83811015610c36578082015181840152602081019050610c1b565b50505050905090810190601f168015610c635780820380516001836020036101000a031916815260200191505b509550505050505060405180910390f35b610d3b60048036036040811015610c8a57600080fd5b81019080803561ffff16906020019092919080359060200190640100000000811115610cb557600080fd5b820183602082011115610cc757600080fd5b80359060200191846001830284011164010000000083111715610ce957600080fd5b91908080601f016020809104026020016040519081016040528093929190818152602001838380828437600081840152601f19601f8201169050808301925050505050505091929192905050506134b9565b005b610e0460048036036040811015610d5357600080fd5b81019080803561ffff16906020019092919080359060200190640100000000811115610d7e57600080fd5b820183602082011115610d9057600080fd5b80359060200191846001830284011164010000000083111715610db257600080fd5b91908080601f016020809104026020016040519081016040528093929190818152602001838380828437600081840152601f19601f820116905080830192505050505050509192919290505050613b5e565b604051808381526020018281526020019250505060405180910390f35b610e6360048036036020811015610e3757600080fd5b81019080803573ffffffffffffffffffffffffffffffffffffffff169060200190929190505050613c72565b005b610ea360048036036040811015610e7b57600080fd5b81019080803561ffff169060200190929190803561ffff169060200190929190505050613e9d565b6040518080602001828103825283818151815260200191508051906020019080838360005b83811015610ee3578082015181840152602081019050610ec8565b50505050905090810190601f168015610f105780820380516001836020036101000a031916815260200191505b509250505060405180910390f35b61107c60048036036060811015610f3457600080fd5b81019080803561ffff16906020019092919080359060200190640100000000811115610f5f57600080fd5b820183602082011115610f7157600080fd5b80359060200191846001830284011164010000000083111715610f9357600080fd5b91908080601f016020809104026020016040519081016040528093929190818152602001838380828437600081840152601f19601f82011690508083019250505050505050919291929080359060200190640100000000811115610ff657600080fd5b82018360208201111561100857600080fd5b8035906020019184600183028401116401000000008311171561102a57600080fd5b91908080601f016020809104026020016040519081016040528093929190818152602001838380828437600081840152601f19601f820116905080830192505050505050509192919290505050613f79565b6040518082815260200191505060405180910390f35b6110c2600480360360208110156110a857600080fd5b81019080803561ffff1690602001909291905050506141f4565b6040518080602001828103825283818151815260200191508051906020019080838360005b838110156111025780820151818401526020810190506110e7565b50505050905090810190601f16801561112f5780820380516001836020036101000a031916815260200191505b509250505060405180910390f35b61118d6004803603604081101561115357600080fd5b81019080803561ffff169060200190929190803573ffffffffffffffffffffffffffffffffffffffff1690602001909291905050506142b0565b6040518080602001828103825283818151815260200191508051906020019060200280838360005b838110156111d05780820151818401526020810190506111b5565b505050509050019250505060405180910390f35b611342600480360360608110156111fa57600080fd5b81019080803561ffff1690602001909291908035906020019064010000000081111561122557600080fd5b82018360208201111561123757600080fd5b8035906020019184600183028401116401000000008311171561125957600080fd5b91908080601f016020809104026020016040519081016040528093929190818152602001838380828437600081840152601f19601f820116905080830192505050505050509192919290803590602001906401000000008111156112bc57600080fd5b8201836020820111156112ce57600080fd5b803590602001918460018302840111640100000000831117156112f057600080fd5b91908080601f016020809104026020016040519081016040528093929190818152602001838380828437600081840152601f19601f8201169050808301925050505050505091929192905050506146f5565b005b6113746004803603602081101561135a57600080fd5b81019080803561ffff169060200190929190505050614ba7565b005b6000600560008661ffff1681526020019081526020016000209050600061139d8286614cdc565b9050600115158160020160019054906101000a900460ff161515146113c157600080fd5b6000151581600301856040518082805190602001908083835b602083106113fd57805182526020820191506020810190506020830392506113da565b6001836020036101000a038019825116818451168082178552505050505050905001915050908152602001604051809103902060020160009054906101000a900460ff1615151461144d57600080fd5b8281600301856040518082805190602001908083835b602083106114865780518252602082019150602081019050602083039250611463565b6001836020036101000a038019825116818451168082178552505050505050905001915050908152602001604051809103902060000190805190602001906114cf929190615e50565b506116b182600a0182600301866040518082805190602001908083835b6020831061150f57805182526020820191506020810190506020830392506114ec565b6001836020036101000a0380198251168184511680821785525050505050509050019150509081526020016040518091039020604051806060016040529081600082018054600181600116156101000203166002900480601f0160208091040260200160405190810160405280929190818152602001828054600181600116156101000203166002900480156115e65780601f106115bb576101008083540402835291602001916115e6565b820191906000526020600020905b8154815290600101906020018083116115c957829003601f168201915b50505050508152602001600182018054600181600116156101000203166002900480601f0160208091040260200160405190810160405280929190818152602001828054600181600116156101000203166002900480156116885780601f1061165d57610100808354040283529160200191611688565b820191906000526020600020905b81548152906001019060200180831161166b57829003601f168201915b505050505081526020016002820160009054906101000a900460ff161515151581525050614d27565b600181600301856040518082805190602001908083835b602083106116eb57805182526020820191506020810190506020830392506116c8565b6001836020036101000a038019825116818451168082178552505050505050905001915050908152602001604051809103902060020160006101000a81548160ff021916908315150217905550505050505050565b826000600560008361ffff16815260200190815260200160002090508060090160019054906101000a900473ffffffffffffffffffffffffffffffffffffffff1673ffffffffffffffffffffffffffffffffffffffff163373ffffffffffffffffffffffffffffffffffffffff161480156117cf575060008160090160009054906101000a900460ff1660ff16145b6117d857600080fd5b6000600560008761ffff168152602001908152602001600020905061186781600501866040518082805190602001908083835b6020831061182e578051825260208201915060208101905060208303925061180b565b6001836020036101000a038019825116818451168082178552505050505050905001915050908152602001604051809103902085615012565b505050505050565b806000600560008361ffff16815260200190815260200160002090508060090160019054906101000a900473ffffffffffffffffffffffffffffffffffffffff1673ffffffffffffffffffffffffffffffffffffffff163373ffffffffffffffffffffffffffffffffffffffff161480156118fe575060008160090160009054906101000a900460ff1660ff16145b61190757600080fd5b6000600560008561ffff168152602001908152602001600020905060008160090160009054906101000a900460ff1660ff161461194357600080fd5b60008060008360090160019054906101000a900473ffffffffffffffffffffffffffffffffffffffff1673ffffffffffffffffffffffffffffffffffffffff1673ffffffffffffffffffffffffffffffffffffffff1681526020019081526020016000206001018190555060008060008360090160019054906101000a900473ffffffffffffffffffffffffffffffffffffffff1673ffffffffffffffffffffffffffffffffffffffff1673ffffffffffffffffffffffffffffffffffffffff16815260200190815260200160002060020160016101000a81548160ff021916908315150217905550611a37600385615214565b50505050565b600015156000808473ffffffffffffffffffffffffffffffffffffffff1673ffffffffffffffffffffffffffffffffffffffff16815260200190815260200160002060020160019054906101000a900460ff16151514611a9c57600080fd5b60008060008473ffffffffffffffffffffffffffffffffffffffff1673ffffffffffffffffffffffffffffffffffffffff168152602001908152602001600020905060018160020160016101000a81548160ff02191690831515021790555060006001600460009054906101000a900461ffff160190506001600460008282829054906101000a900461ffff160192506101000a81548161ffff021916908361ffff1602179055508061ffff168260010181905550611b59615ed0565b83816000018190525081816040019061ffff16908161ffff168152505060008160a0019060ff16908160ff1681525050338160c0019073ffffffffffffffffffffffffffffffffffffffff16908173ffffffffffffffffffffffffffffffffffffffff1681525050600382908060018154018082558091505090600182039060005260206000209060109182820401919006600202909192909190916101000a81548161ffff021916908361ffff1602179055505080600560008461ffff1681526020019081526020016000206000820151816000019080519060200190611c42929190615f38565b506020820151816001019080519060200190611c5f929190615f38565b5060408201518160020160006101000a81548161ffff021916908361ffff1602179055506060820151816003019080519060200190611c9f929190615fb8565b506080820151816006019080519060200190611cbc929190616042565b5060a08201518160090160006101000a81548160ff021916908360ff16021790555060c08201518160090160016101000a81548173ffffffffffffffffffffffffffffffffffffffff021916908373ffffffffffffffffffffffffffffffffffffffff16021790555060e082015181600a016000820151816000019080519060200190611d4a929190616042565b5050509050505050505050565b826000600560008361ffff16815260200190815260200160002090508060090160019054906101000a900473ffffffffffffffffffffffffffffffffffffffff1673ffffffffffffffffffffffffffffffffffffffff163373ffffffffffffffffffffffffffffffffffffffff16148015611de6575060008160090160009054906101000a900460ff1660ff16145b611def57600080fd5b6000600560008761ffff1681526020019081526020016000209050611e7e81600401866040518082805190602001908083835b60208310611e455780518252602082019150602081019050602083039250611e22565b6001836020036101000a038019825116818451168082178552505050505050905001915050908152602001604051809103902085615358565b611e8b816003018561555d565b505050505050565b611e9c81613c72565b50565b60606000600560008661ffff168152602001908152602001600020905080600501846040518082805190602001908083835b60208310611ef45780518252602082019150602081019050602083039250611ed1565b6001836020036101000a03801982511681845116808217855250505050505090500191505090815260200160405180910390208381548110611f3257fe5b90600052602060002090600302016000018054600181600116156101000203166002900480601f016020809104026020016040519081016040528092919081815260200182805460018160011615610100020316600290048015611fd75780601f10611fac57610100808354040283529160200191611fd7565b820191906000526020600020905b815481529060010190602001808311611fba57829003601f168201915b50505050509150509392505050565b6000600560008361ffff16815260200190815260200160002060090160009054906101000a900460ff169050919050565b826000600560008361ffff16815260200190815260200160002090508060090160019054906101000a900473ffffffffffffffffffffffffffffffffffffffff1673ffffffffffffffffffffffffffffffffffffffff163373ffffffffffffffffffffffffffffffffffffffff161480156120a6575060008160090160009054906101000a900460ff1660ff16145b6120af57600080fd5b6000600560008761ffff1681526020019081526020016000209050600080905060008090505b82600401876040518082805190602001908083835b6020831061210d57805182526020820191506020810190506020830392506120ea565b6001836020036101000a03801982511681845116808217855250505050505090500191505090815260200160405180910390208054905081101561223c578573ffffffffffffffffffffffffffffffffffffffff1683600401886040518082805190602001908083835b6020831061219a5780518252602082019150602081019050602083039250612177565b6001836020036101000a038019825116818451168082178552505050505050905001915050908152602001604051809103902082815481106121d857fe5b906000526020600020906003020160000160009054906101000a900473ffffffffffffffffffffffffffffffffffffffff1673ffffffffffffffffffffffffffffffffffffffff16141561222f576001915061223c565b80806001019150506120d5565b50806123e45781600401866040518082805190602001908083835b6020831061227a5780518252602082019150602081019050602083039250612257565b6001836020036101000a038019825116818451168082178552505050505050905001915050908152602001604051809103902060405180606001604052808773ffffffffffffffffffffffffffffffffffffffff16815260200188815260200160008152509080600181540180825580915050906001820390600052602060002090600302016000909192909190915060008201518160000160006101000a81548173ffffffffffffffffffffffffffffffffffffffff021916908373ffffffffffffffffffffffffffffffffffffffff160217905550602082015181600101908051906020019061236d929190615f38565b5060408201518160020155505050816003018590806001815401808255809150509060018203906000526020600020016000909192909190916101000a81548173ffffffffffffffffffffffffffffffffffffffff021916908373ffffffffffffffffffffffffffffffffffffffff160217905550505b50505050505050565b816000600560008361ffff16815260200190815260200160002090508060090160019054906101000a900473ffffffffffffffffffffffffffffffffffffffff1673ffffffffffffffffffffffffffffffffffffffff163373ffffffffffffffffffffffffffffffffffffffff1614801561247c575060008160090160009054906101000a900460ff1660ff16145b61248557600080fd5b6000600560008661ffff1681526020019081526020016000209050600080905060008090505b8260060180549050811015612590576125758360060182815481106124cc57fe5b906000526020600020018054600181600116156101000203166002900480601f01602080910402602001604051908101604052809291908181526020018280546001816001161561010002031660029004801561256a5780601f1061253f5761010080835404028352916020019161256a565b820191906000526020600020905b81548152906001019060200180831161254d57829003601f168201915b5050505050876156f3565b156125835760019150612590565b80806001019150506124ab565b50806125d857816006018590806001815401808255809150509060018203906000526020600020016000909192909190915090805190602001906125d5929190615e50565b50505b505050505050565b600080600560008661ffff168152602001908152602001600020905080600401846040518082805190602001908083835b602083106126345780518252602082019150602081019050602083039250612611565b6001836020036101000a0380198251168184511680821785525050505050509050019150509081526020016040518091039020838154811061267257fe5b906000526020600020906003020160000160009054906101000a900473ffffffffffffffffffffffffffffffffffffffff169150509392505050565b806000600560008361ffff16815260200190815260200160002090508060090160019054906101000a900473ffffffffffffffffffffffffffffffffffffffff1673ffffffffffffffffffffffffffffffffffffffff163373ffffffffffffffffffffffffffffffffffffffff1614801561273d575060008160090160009054906101000a900460ff1660ff16145b61274657600080fd5b6000600560008561ffff168152602001908152602001600020905060008090505b8160060180549050811015612cf6576128318283600601838154811061278957fe5b906000526020600020018054600181600116156101000203166002900480601f0160208091040260200160405190810160405280929190818152602001828054600181600116156101000203166002900480156128275780601f106127fc57610100808354040283529160200191612827565b820191906000526020600020905b81548152906001019060200180831161280a57829003601f168201915b50505050506157f9565b60008090505b8260050183600601838154811061284a57fe5b9060005260206000200160405180828054600181600116156101000203166002900480156128af5780601f1061288d5761010080835404028352918201916128af565b820191906000526020600020905b81548152906001019060200180831161289b575b5050915050908152602001604051809103902080549050811015612ad557612ac8838460060184815481106128e057fe5b906000526020600020018054600181600116156101000203166002900480601f01602080910402602001604051908101604052809291908181526020018280546001816001161561010002031660029004801561297e5780601f106129535761010080835404028352916020019161297e565b820191906000526020600020905b81548152906001019060200180831161296157829003601f168201915b50505050508560050186600601868154811061299657fe5b9060005260206000200160405180828054600181600116156101000203166002900480156129fb5780601f106129d95761010080835404028352918201916129fb565b820191906000526020600020905b8154815290600101906020018083116129e7575b505091505090815260200160405180910390208481548110612a1957fe5b90600052602060002090600302016000018054600181600116156101000203166002900480601f016020809104026020016040519081016040528092919081815260200182805460018160011615610100020316600290048015612abe5780601f10612a9357610100808354040283529160200191612abe565b820191906000526020600020905b815481529060010190602001808311612aa157829003601f168201915b505050505061580a565b8080600101915050612837565b5060008090505b82600401836006018381548110612aef57fe5b906000526020600020016040518082805460018160011615610100020316600290048015612b545780601f10612b32576101008083540402835291820191612b54565b820191906000526020600020905b815481529060010190602001808311612b40575b5050915050908152602001604051809103902080549050811015612ce85782600801600084600401856006018581548110612b8b57fe5b906000526020600020016040518082805460018160011615610100020316600290048015612bf05780601f10612bce576101008083540402835291820191612bf0565b820191906000526020600020905b815481529060010190602001808311612bdc575b505091505090815260200160405180910390208381548110612c0e57fe5b906000526020600020906003020160000160009054906101000a900473ffffffffffffffffffffffffffffffffffffffff1673ffffffffffffffffffffffffffffffffffffffff1673ffffffffffffffffffffffffffffffffffffffff168152602001908152602001600020836006018381548110612c8957fe5b906000526020600020019080600181540180825580915050906001820390600052602060002001600090919290919091509080546001816001161561010002031660029004612cd99291906160a2565b50508080600101915050612adc565b508080600101915050612767565b5060008090505b8160030180549050811015612d5c57612d4f82836003018381548110612d1f57fe5b9060005260206000200160009054906101000a900473ffffffffffffffffffffffffffffffffffffffff1661581d565b8080600101915050612cfd565b5060018160090160006101000a81548160ff021916908360ff16021790555060008090505b8160030180549050811015613048576001600560008761ffff16815260200190815260200160002060090160009054906101000a900460ff1660ff1614612dc757600080fd5b6000612e0c83846003018481548110612ddc57fe5b9060005260206000200160009054906101000a900473ffffffffffffffffffffffffffffffffffffffff16614cdc565b905060008090505b816001018054905081101561301c5760405180606001604052806040518060400160405280600181526020017f20000000000000000000000000000000000000000000000000000000000000008152508152602001836001018381548110612e7857fe5b906000526020600020018054600181600116156101000203166002900480601f016020809104026020016040519081016040528092919081815260200182805460018160011615610100020316600290048015612f165780601f10612eeb57610100808354040283529160200191612f16565b820191906000526020600020905b815481529060010190602001808311612ef957829003601f168201915b505050505081526020016000151581525082600301836001018381548110612f3a57fe5b906000526020600020016040518082805460018160011615610100020316600290048015612f9f5780601f10612f7d576101008083540402835291820191612f9f565b820191906000526020600020905b815481529060010190602001808311612f8b575b505091505090815260200160405180910390206000820151816000019080519060200190612fce929190615f38565b506020820151816001019080519060200190612feb929190615f38565b5060408201518160020160006101000a81548160ff0219169083151502179055509050508080600101915050612e14565b5060018160020160016101000a81548160ff021916908315150217905550508080600101915050612d81565b5050505050565b6060600080905060008090505b60038054905081101561319d5760008090505b600560006003848154811061308057fe5b90600052602060002090601091828204019190066002029054906101000a900461ffff1661ffff1681526020019081526020016000206003018054905081101561318f578473ffffffffffffffffffffffffffffffffffffffff1660056000600385815481106130ec57fe5b90600052602060002090601091828204019190066002029054906101000a900461ffff1661ffff168152602001908152602001600020600301828154811061313057fe5b9060005260206000200160009054906101000a900473ffffffffffffffffffffffffffffffffffffffff1673ffffffffffffffffffffffffffffffffffffffff1614156131825760018301925061318f565b808060010191505061306f565b50808060010191505061305c565b506060816040519080825280602002602001820160405280156131cf5781602001602082028038833980820191505090505b509050600080905060008090505b60038054905081101561336b5760008090505b600560006003848154811061320157fe5b90600052602060002090601091828204019190066002029054906101000a900461ffff1661ffff1681526020019081526020016000206003018054905081101561335d578673ffffffffffffffffffffffffffffffffffffffff16600560006003858154811061326d57fe5b90600052602060002090601091828204019190066002029054906101000a900461ffff1661ffff16815260200190815260200160002060030182815481106132b157fe5b9060005260206000200160009054906101000a900473ffffffffffffffffffffffffffffffffffffffff1673ffffffffffffffffffffffffffffffffffffffff161415613350576003828154811061330557fe5b90600052602060002090601091828204019190066002029054906101000a900461ffff1661ffff1684848151811061333957fe5b60200260200101818152505060018301925061335d565b80806001019150506131f0565b5080806001019150506131dd565b50819350505050919050565b6000606060008060008060008773ffffffffffffffffffffffffffffffffffffffff1673ffffffffffffffffffffffffffffffffffffffff16815260200190815260200160002090506000600560008360010154815260200190815260200160002090508060020160009054906101000a900461ffff168160000182600601805490508360090160009054906101000a900460ff16828054600181600116156101000203166002900480601f0160208091040260200160405190810160405280929190818152602001828054600181600116156101000203166002900480156134a15780601f10613476576101008083540402835291602001916134a1565b820191906000526020600020905b81548152906001019060200180831161348457829003601f168201915b50505050509250955095509550955050509193509193565b816000600560008361ffff16815260200190815260200160002090508060090160019054906101000a900473ffffffffffffffffffffffffffffffffffffffff1673ffffffffffffffffffffffffffffffffffffffff163373ffffffffffffffffffffffffffffffffffffffff16148015613548575060008160090160009054906101000a900460ff1660ff16145b61355157600080fd5b6000600560008661ffff16815260200190815260200160002090506135798160060185615a85565b606081600401856040518082805190602001908083835b602083106135b35780518252602082019150602081019050602083039250613590565b6001836020036101000a0380198251168184511680821785525050505050509050019150509081526020016040518091039020805490506040519080825280602002602001820160405280156136185781602001602082028038833980820191505090505b50905060008090505b815181101561365757600082828151811061363857fe5b6020026020010190151590811515815250508080600101915050613621565b5060008090505b82600401866040518082805190602001908083835b602083106136965780518252602082019150602081019050602083039250613673565b6001836020036101000a0380198251168184511680821785525050505050509050019150509081526020016040518091039020805490508110156139715760008090505b83600601805490508110156139635760008090505b8460040185600601838154811061370257fe5b9060005260206000200160405180828054600181600116156101000203166002900480156137675780601f10613745576101008083540402835291820191613767565b820191906000526020600020905b815481529060010190602001808311613753575b50509150509081526020016040518091039020805490508110156139555784600401886040518082805190602001908083835b602083106137bd578051825260208201915060208101905060208303925061379a565b6001836020036101000a038019825116818451168082178552505050505050905001915050908152602001604051809103902083815481106137fb57fe5b906000526020600020906003020160000160009054906101000a900473ffffffffffffffffffffffffffffffffffffffff1673ffffffffffffffffffffffffffffffffffffffff168560040186600601848154811061385657fe5b9060005260206000200160405180828054600181600116156101000203166002900480156138bb5780601f106138995761010080835404028352918201916138bb565b820191906000526020600020905b8154815290600101906020018083116138a7575b5050915050908152602001604051809103902082815481106138d957fe5b906000526020600020906003020160000160009054906101000a900473ffffffffffffffffffffffffffffffffffffffff1673ffffffffffffffffffffffffffffffffffffffff16141561394857600184848151811061393557fe5b6020026020010190151590811515815250505b80806001019150506136ef565b5080806001019150506136da565b50808060010191505061365e565b5060008090505b8151811015613a63576000151582828151811061399157fe5b602002602001015115151415613a5657613a558360030184600401886040518082805190602001908083835b602083106139e057805182526020820191506020810190506020830392506139bd565b6001836020036101000a03801982511681845116808217855250505050505090500191505090815260200160405180910390208381548110613a1e57fe5b906000526020600020906003020160000160009054906101000a900473ffffffffffffffffffffffffffffffffffffffff1661555d565b5b8080600101915050613978565b50600082600401866040518082805190602001908083835b60208310613a9e5780518252602082019150602081019050602083039250613a7b565b6001836020036101000a038019825116818451168082178552505050505050905001915050908152602001604051809103902081613adc9190616129565b50600082600501866040518082805190602001908083835b60208310613b175780518252602082019150602081019050602083039250613af4565b6001836020036101000a038019825116818451168082178552505050505050905001915050908152602001604051809103902081613b55919061615b565b50505050505050565b6000806000600560008661ffff1681526020019081526020016000209050600081600401856040518082805190602001908083835b60208310613bb65780518252602082019150602081019050602083039250613b93565b6001836020036101000a0380198251168184511680821785525050505050509050019150509081526020016040518091039020805490509050600082600501866040518082805190602001908083835b60208310613c295780518252602082019150602081019050602083039250613c06565b6001836020036101000a03801982511681845116808217855250505050505090500191505090815260200160405180910390208054905090508181945094505050509250929050565b60001515600260008373ffffffffffffffffffffffffffffffffffffffff1673ffffffffffffffffffffffffffffffffffffffff16815260200190815260200160002060009054906101000a900460ff1615151415613e9a5760405180608001604052808273ffffffffffffffffffffffffffffffffffffffff16815260200160008152602001600015158152602001600015158152506000808373ffffffffffffffffffffffffffffffffffffffff1673ffffffffffffffffffffffffffffffffffffffff16815260200190815260200160002060008201518160000160006101000a81548173ffffffffffffffffffffffffffffffffffffffff021916908373ffffffffffffffffffffffffffffffffffffffff1602179055506020820151816001015560408201518160020160006101000a81548160ff02191690831515021790555060608201518160020160016101000a81548160ff0219169083151502179055509050506001600260008373ffffffffffffffffffffffffffffffffffffffff1673ffffffffffffffffffffffffffffffffffffffff16815260200190815260200160002060006101000a81548160ff02191690831515021790555060018190806001815401808255809150509060018203906000526020600020016000909192909190916101000a81548173ffffffffffffffffffffffffffffffffffffffff021916908373ffffffffffffffffffffffffffffffffffffffff160217905550505b50565b60606000600560008561ffff1681526020019081526020016000209050806006018361ffff1681548110613ecd57fe5b906000526020600020018054600181600116156101000203166002900480601f016020809104026020016040519081016040528092919081815260200182805460018160011615610100020316600290048015613f6b5780601f10613f4057610100808354040283529160200191613f6b565b820191906000526020600020905b815481529060010190602001808311613f4e57829003601f168201915b505050505091505092915050565b600080600560008661ffff168152602001908152602001600020905060008090505b81600a01600101856040518082805190602001908083835b60208310613fd65780518252602082019150602081019050602083039250613fb3565b6001836020036101000a0380198251168184511680821785525050505050509050019150509081526020016040518091039020805490508110156141e65761414082600a01600101866040518082805190602001908083835b60208310614052578051825260208201915060208101905060208303925061402f565b6001836020036101000a0380198251168184511680821785525050505050509050019150509081526020016040518091039020828154811061409057fe5b90600052602060002090600302016000018054600181600116156101000203166002900480601f0160208091040260200160405190810160405280929190818152602001828054600181600116156101000203166002900480156141355780601f1061410a57610100808354040283529160200191614135565b820191906000526020600020905b81548152906001019060200180831161411857829003601f168201915b5050505050856156f3565b156141d95781600a01600101856040518082805190602001908083835b60208310614180578051825260208201915060208101905060208303925061415d565b6001836020036101000a038019825116818451168082178552505050505050905001915050908152602001604051809103902081815481106141be57fe5b906000526020600020906003020160020154925050506141ed565b8080600101915050613f9b565b5060009150505b9392505050565b6060600560008361ffff1681526020019081526020016000206000018054600181600116156101000203166002900480601f0160208091040260200160405190810160405280929190818152602001828054600181600116156101000203166002900480156142a45780601f10614279576101008083540402835291602001916142a4565b820191906000526020600020905b81548152906001019060200180831161428757829003601f168201915b50505050509050919050565b606060008090506000600560008661ffff168152602001908152602001600020905060008090505b81600601805490508110156144a45760008090505b8260040183600601838154811061430057fe5b9060005260206000200160405180828054600181600116156101000203166002900480156143655780601f10614343576101008083540402835291820191614365565b820191906000526020600020905b815481529060010190602001808311614351575b5050915050908152602001604051809103902080549050811015614496578573ffffffffffffffffffffffffffffffffffffffff16836004018460060184815481106143ad57fe5b9060005260206000200160405180828054600181600116156101000203166002900480156144125780601f106143f0576101008083540402835291820191614412565b820191906000526020600020905b8154815290600101906020018083116143fe575b50509150509081526020016040518091039020828154811061443057fe5b906000526020600020906003020160000160009054906101000a900473ffffffffffffffffffffffffffffffffffffffff1673ffffffffffffffffffffffffffffffffffffffff16141561448957600184019350614496565b80806001019150506142ed565b5080806001019150506142d8565b5060608261ffff166040519080825280602002602001820160405280156144da5781602001602082028038833980820191505090505b509050600080905060008090505b83600601805490508161ffff1610156146e75760008090505b84600401856006018361ffff168154811061451857fe5b90600052602060002001604051808280546001816001161561010002031660029004801561457d5780601f1061455b57610100808354040283529182019161457d565b820191906000526020600020905b815481529060010190602001808311614569575b50509150509081526020016040518091039020805490508110156146d9578773ffffffffffffffffffffffffffffffffffffffff1685600401866006018461ffff16815481106145c957fe5b90600052602060002001604051808280546001816001161561010002031660029004801561462e5780601f1061460c57610100808354040283529182019161462e565b820191906000526020600020905b81548152906001019060200180831161461a575b50509150509081526020016040518091039020828154811061464c57fe5b906000526020600020906003020160000160009054906101000a900473ffffffffffffffffffffffffffffffffffffffff1673ffffffffffffffffffffffffffffffffffffffff1614156146cc5781848461ffff16815181106146ab57fe5b602002602001019061ffff16908161ffff16815250506001830192506146d9565b8080600101915050614501565b5080806001019150506144e8565b508194505050505092915050565b826000600560008361ffff16815260200190815260200160002090508060090160019054906101000a900473ffffffffffffffffffffffffffffffffffffffff1673ffffffffffffffffffffffffffffffffffffffff163373ffffffffffffffffffffffffffffffffffffffff16148015614784575060008160090160009054906101000a900460ff1660ff16145b61478d57600080fd5b6000600560008761ffff1681526020019081526020016000209050600080905060008090505b82600501876040518082805190602001908083835b602083106147eb57805182526020820191506020810190506020830392506147c8565b6001836020036101000a038019825116818451168082178552505050505050905001915050908152602001604051809103902080549050811015614a9e5761495283600501886040518082805190602001908083835b602083106148645780518252602082019150602081019050602083039250614841565b6001836020036101000a038019825116818451168082178552505050505050905001915050908152602001604051809103902082815481106148a257fe5b90600052602060002090600302016000018054600181600116156101000203166002900480601f0160208091040260200160405190810160405280929190818152602001828054600181600116156101000203166002900480156149475780601f1061491c57610100808354040283529160200191614947565b820191906000526020600020905b81548152906001019060200180831161492a57829003601f168201915b5050505050876156f3565b8015614a835750614a8283600501886040518082805190602001908083835b602083106149945780518252602082019150602081019050602083039250614971565b6001836020036101000a038019825116818451168082178552505050505050905001915050908152602001604051809103902082815481106149d257fe5b90600052602060002090600302016001018054600181600116156101000203166002900480601f016020809104026020016040519081016040528092919081815260200182805460018160011615610100020316600290048015614a775780601f10614a4c57610100808354040283529160200191614a77565b820191906000526020600020905b815481529060010190602001808311614a5a57829003601f168201915b5050505050886156f3565b5b15614a915760019150614a9e565b80806001019150506147b3565b5080614b9e5781600501866040518082805190602001908083835b60208310614adc5780518252602082019150602081019050602083039250614ab9565b6001836020036101000a038019825116818451168082178552505050505050905001915050908152602001604051809103902060405180606001604052808781526020018881526020016000815250908060018154018082558091505090600182039060005260206000209060030201600090919290919091506000820151816000019080519060200190614b72929190615f38565b506020820151816001019080519060200190614b8f929190615f38565b50604082015181600201555050505b50505050505050565b806000600560008361ffff16815260200190815260200160002090508060090160019054906101000a900473ffffffffffffffffffffffffffffffffffffffff1673ffffffffffffffffffffffffffffffffffffffff163373ffffffffffffffffffffffffffffffffffffffff1614614c1f57600080fd5b6000600560008561ffff168152602001908152602001600020905060028160090160006101000a81548160ff021916908360ff16021790555060008060008360090160019054906101000a900473ffffffffffffffffffffffffffffffffffffffff1673ffffffffffffffffffffffffffffffffffffffff1673ffffffffffffffffffffffffffffffffffffffff16815260200190815260200160002060020160016101000a81548160ff02191690831515021790555050505050565b60008260070160008373ffffffffffffffffffffffffffffffffffffffff1673ffffffffffffffffffffffffffffffffffffffff168152602001908152602001600020905092915050565b60018260020182602001516040518082805190602001908083835b60208310614d655780518252602082019150602081019050602083039250614d42565b6001836020036101000a038019825116818451168082178552505050505050905001915050908152602001604051809103902060006101000a81548160ff02191690831515021790555060008090505b8260010182602001516040518082805190602001908083835b60208310614df15780518252602082019150602081019050602083039250614dce565b6001836020036101000a03801982511681845116808217855250505050505090500191505090815260200160405180910390208054905081101561500d57614f608360010183602001516040518082805190602001908083835b60208310614e6e5780518252602082019150602081019050602083039250614e4b565b6001836020036101000a03801982511681845116808217855250505050505090500191505090815260200160405180910390208281548110614eac57fe5b90600052602060002090600302016000018054600181600116156101000203166002900480601f016020809104026020016040519081016040528092919081815260200182805460018160011615610100020316600290048015614f515780601f10614f2657610100808354040283529160200191614f51565b820191906000526020600020905b815481529060010190602001808311614f3457829003601f168201915b505050505083600001516156f3565b156150005760018360010183602001516040518082805190602001908083835b60208310614fa35780518252602082019150602081019050602083039250614f80565b6001836020036101000a03801982511681845116808217855250505050505090500191505090815260200160405180910390208281548110614fe157fe5b9060005260206000209060030201600201600082825401925050819055505b8080600101915050614db5565b505050565b6000809050600080905060008090505b8480549050811015615107576150ed85828154811061503d57fe5b90600052602060002090600302016000018054600181600116156101000203166002900480601f0160208091040260200160405190810160405280929190818152602001828054600181600116156101000203166002900480156150e25780601f106150b7576101008083540402835291602001916150e2565b820191906000526020600020905b8154815290600101906020018083116150c557829003601f168201915b5050505050856156f3565b156150fa57600192508091505b8080600101915050615022565b50811561520e5760008190508460018680549050038154811061512657fe5b906000526020600020906003020185828154811061514057fe5b90600052602060002090600302016000820181600001908054600181600116156101000203166002900461517592919061618d565b506001820181600101908054600181600116156101000203166002900461519d92919061618d565b5060028201548160020155905050846001868054905003815481106151be57fe5b9060005260206000209060030201600080820160006151dd9190616214565b6001820160006151ed9190616214565b600282016000905550508480548091906001900361520b919061625c565b50505b50505050565b6000809050600080905060008090505b8480549050811015615284578361ffff1685828154811061524157fe5b90600052602060002090601091828204019190066002029054906101000a900461ffff1661ffff16141561527757600192508091505b8080600101915050615224565b508115615352576000819050846001868054905003815481106152a357fe5b90600052602060002090601091828204019190066002029054906101000a900461ffff168582815481106152d357fe5b90600052602060002090601091828204019190066002026101000a81548161ffff021916908361ffff1602179055508460018680549050038154811061531557fe5b90600052602060002090601091828204019190066002026101000a81549061ffff02191690558480548091906001900361534f919061628e565b50505b50505050565b6000809050600080905060008090505b84805490508110156153fa578373ffffffffffffffffffffffffffffffffffffffff1685828154811061539757fe5b906000526020600020906003020160000160009054906101000a900473ffffffffffffffffffffffffffffffffffffffff1673ffffffffffffffffffffffffffffffffffffffff1614156153ed57600192508091505b8080600101915050615368565b5081156155575760008190508460018680549050038154811061541957fe5b906000526020600020906003020185828154811061543357fe5b90600052602060002090600302016000820160009054906101000a900473ffffffffffffffffffffffffffffffffffffffff168160000160006101000a81548173ffffffffffffffffffffffffffffffffffffffff021916908373ffffffffffffffffffffffffffffffffffffffff160217905550600182018160010190805460018160011615610100020316600290046154cf92919061618d565b5060028201548160020155905050846001868054905003815481106154f057fe5b9060005260206000209060030201600080820160006101000a81549073ffffffffffffffffffffffffffffffffffffffff02191690556001820160006155369190616214565b600282016000905550508480548091906001900361555491906162c8565b50505b50505050565b6000809050600080905060008090505b84805490508110156155f8578373ffffffffffffffffffffffffffffffffffffffff1685828154811061559c57fe5b9060005260206000200160009054906101000a900473ffffffffffffffffffffffffffffffffffffffff1673ffffffffffffffffffffffffffffffffffffffff1614156155eb57600192508091505b808060010191505061556d565b5081156156ed5760008190508460018680549050038154811061561757fe5b9060005260206000200160009054906101000a900473ffffffffffffffffffffffffffffffffffffffff1685828154811061564e57fe5b9060005260206000200160006101000a81548173ffffffffffffffffffffffffffffffffffffffff021916908373ffffffffffffffffffffffffffffffffffffffff160217905550846001868054905003815481106156a957fe5b9060005260206000200160006101000a81549073ffffffffffffffffffffffffffffffffffffffff0219169055848054809190600190036156ea91906162fa565b50505b50505050565b6000816040516020018082805190602001908083835b6020831061572c5780518252602082019150602081019050602083039250615709565b6001836020036101000a0380198251168184511680821785525050505050509050019150506040516020818303038152906040528051906020012060001c836040516020018082805190602001908083835b602083106157a1578051825260208201915060208101905060208303925061577e565b6001836020036101000a0380198251168184511680821785525050505050509050019150506040516020818303038152906040528051906020012060001c14156157ee57600190506157f3565b600090505b92915050565b61580682600a0182615c18565b5050565b61581883600a018383615d52565b505050565b615825616326565b81816000019073ffffffffffffffffffffffffffffffffffffffff16908173ffffffffffffffffffffffffffffffffffffffff16815250508260080160008373ffffffffffffffffffffffffffffffffffffffff1673ffffffffffffffffffffffffffffffffffffffff168152602001908152602001600020805480602002602001604051908101604052809291908181526020016000905b8282101561597a578382906000526020600020018054600181600116156101000203166002900480601f0160208091040260200160405190810160405280929190818152602001828054600181600116156101000203166002900480156159665780601f1061593b57610100808354040283529160200191615966565b820191906000526020600020905b81548152906001019060200180831161594957829003601f168201915b5050505050815260200190600101906158be565b5050505081602001819052506000816040019015159081151581525050808360070160008473ffffffffffffffffffffffffffffffffffffffff1673ffffffffffffffffffffffffffffffffffffffff16815260200190815260200160002060008201518160000160006101000a81548173ffffffffffffffffffffffffffffffffffffffff021916908373ffffffffffffffffffffffffffffffffffffffff1602179055506020820151816001019080519060200190615a3c929190616042565b5060408201518160020160006101000a81548160ff02191690831515021790555060608201518160020160016101000a81548160ff021916908315150217905550905050505050565b6000809050600080905060008090505b8480549050811015615b7357615b59858281548110615ab057fe5b906000526020600020018054600181600116156101000203166002900480601f016020809104026020016040519081016040528092919081815260200182805460018160011615610100020316600290048015615b4e5780601f10615b2357610100808354040283529160200191615b4e565b820191906000526020600020905b815481529060010190602001808311615b3157829003601f168201915b5050505050856156f3565b15615b6657600192508091505b8080600101915050615a95565b508115615c1257600081905084600186805490500381548110615b9257fe5b90600052602060002001858281548110615ba857fe5b906000526020600020019080546001816001161561010002031660029004615bd19291906160a2565b5084600186805490500381548110615be557fe5b906000526020600020016000615bfb9190616214565b84805480919060019003615c0f9190616368565b50505b50505050565b81600001819080600181540180825580915050906001820390600052602060002001600090919290919091509080519060200190615c57929190615e50565b5050600082600201826040518082805190602001908083835b60208310615c935780518252602082019150602081019050602083039250615c70565b6001836020036101000a038019825116818451168082178552505050505050905001915050908152602001604051809103902060006101000a81548160ff021916908315150217905550600082600301826040518082805190602001908083835b60208310615d175780518252602082019150602081019050602083039250615cf4565b6001836020036101000a0380198251168184511680821785525050505050509050019150509081526020016040518091039020819055505050565b82600101826040518082805190602001908083835b60208310615d8a5780518252602082019150602081019050602083039250615d67565b6001836020036101000a038019825116818451168082178552505050505050905001915050908152602001604051809103902060405180606001604052808381526020018481526020016000815250908060018154018082558091505090600182039060005260206000209060030201600090919290919091506000820151816000019080519060200190615e20929190615f38565b506020820151816001019080519060200190615e3d929190615f38565b5060408201518160020155505050505050565b828054600181600116156101000203166002900490600052602060002090601f016020900481019282601f10615e9157805160ff1916838001178555615ebf565b82800160010185558215615ebf579182015b82811115615ebe578251825591602001919060010190615ea3565b5b509050615ecc9190616394565b5090565b6040518061010001604052806060815260200160608152602001600061ffff1681526020016060815260200160608152602001600060ff168152602001600073ffffffffffffffffffffffffffffffffffffffff168152602001615f326163b9565b81525090565b828054600181600116156101000203166002900490600052602060002090601f016020900481019282601f10615f7957805160ff1916838001178555615fa7565b82800160010185558215615fa7579182015b82811115615fa6578251825591602001919060010190615f8b565b5b509050615fb49190616394565b5090565b828054828255906000526020600020908101928215616031579160200282015b828111156160305782518260006101000a81548173ffffffffffffffffffffffffffffffffffffffff021916908373ffffffffffffffffffffffffffffffffffffffff16021790555091602001919060010190615fd8565b5b50905061603e91906163cc565b5090565b828054828255906000526020600020908101928215616091579160200282015b82811115616090578251829080519060200190616080929190615f38565b5091602001919060010190616062565b5b50905061609e919061640f565b5090565b828054600181600116156101000203166002900490600052602060002090601f016020900481019282601f106160db5780548555616118565b8280016001018555821561611857600052602060002091601f016020900482015b828111156161175782548255916001019190600101906160fc565b5b5090506161259190616394565b5090565b81548183558181111561615657600302816003028360005260206000209182019101616155919061643b565b5b505050565b815481835581811115616188576003028160030283600052602060002091820191016161879190616499565b5b505050565b828054600181600116156101000203166002900490600052602060002090601f016020900481019282601f106161c65780548555616203565b8280016001018555821561620357600052602060002091601f016020900482015b828111156162025782548255916001019190600101906161e7565b5b5090506162109190616394565b5090565b50805460018160011615610100020316600290046000825580601f1061623a5750616259565b601f0160209004906000526020600020908101906162589190616394565b5b50565b815481835581811115616289576003028160030283600052602060002091820191016162889190616499565b5b505050565b8154818355818111156162c357600f016010900481600f016010900483600052602060002091820191016162c29190616394565b5b505050565b8154818355818111156162f5576003028160030283600052602060002091820191016162f4919061643b565b5b505050565b815481835581811115616321578183600052602060002091820191016163209190616394565b5b505050565b6040518060800160405280600073ffffffffffffffffffffffffffffffffffffffff168152602001606081526020016000151581526020016000151581525090565b81548183558181111561638f5781836000526020600020918201910161638e919061640f565b5b505050565b6163b691905b808211156163b257600081600090555060010161639a565b5090565b90565b6040518060200160405280606081525090565b61640c91905b8082111561640857600081816101000a81549073ffffffffffffffffffffffffffffffffffffffff0219169055506001016163d2565b5090565b90565b61643891905b80821115616434576000818161642b9190616214565b50600101616415565b5090565b90565b61649691905b8082111561649257600080820160006101000a81549073ffffffffffffffffffffffffffffffffffffffff02191690556001820160006164819190616214565b600282016000905550600301616441565b5090565b90565b6164dd91905b808211156164d957600080820160006164b89190616214565b6001820160006164c89190616214565b60028201600090555060030161649f565b5090565b9056fea265627a7a723158206d3e4bd2cdda8193f38b0ab57ec789a884c92457c5004e07237bbfe275ac7e1564736f6c63430005100032",
  "source": "pragma solidity >=0.5.0 <0.6.0;\nimport \"./final.sol\";\nimport \"./voter_account.sol\";\ncontract system_process is  _final, VoterAccount {\n    uint16[] private vote_set;\n    uint16 _counter = 0;\n    mapping (uint => launched_vote) launched_map;\n    address private owner;\n    constructor() public {\n        owner = msg.sender;\n    }\n    struct voter_state{\n        address id;\n        string[] item;\n        bool start_check;\n        bool ballots_check;\n        mapping(string => ballot) ballots;\n    }\n    struct launched_vote{\n        string topic;\n        string content;\n        uint16 selection_id;\n        address[] ValidList;\n        mapping (string => candidate_2[]) itemTovoter;\n        mapping (string => candidate[]) itemTocand;\n        string[]    items; \n        mapping (address => voter_state) state_map;\n        mapping (address => string[]) voterToitems;\n        uint8 vote_available;\n        address launcher_address;\n        result vote_result;\n    }\n    modifier check_omg(){\n        require(msg.sender == owner);\n        _;\n    }\n    function get_topic(uint16 _selection_id) view public returns(string memory)\n    {\n        return launched_map[_selection_id].topic;\n    }\n    function get_available_launched(address _UserId) view public returns(uint[] memory)\n    {\n        uint _size = 0;\n        for(uint i=0; i<vote_set.length; i++)\n        {\n            for(uint j=0; j<launched_map[vote_set[i]].ValidList.length; j++)\n            {\n                if(launched_map[vote_set[i]].ValidList[j] == _UserId)\n                {\n                    _size += 1;\n                    break;\n                }\n            }\n        }\n        uint[] memory launched_list = new uint[](_size);\n        uint counter = 0;\n        for(uint i=0; i<vote_set.length; i++)\n        {\n            for(uint j=0; j<launched_map[vote_set[i]].ValidList.length; j++) \n            {\n                if(launched_map[vote_set[i]].ValidList[j] == _UserId)\n                {\n                    launched_list[counter] = vote_set[i];\n                    counter += 1;\n                    break;\n\n                }\n            }\n        }\n        return (launched_list);\n    }\n    function find_available_item(uint16 _selection_id, address  _UserId) view public returns(uint16[] memory)\n    {\n        uint16 size = 0;\n        \n        launched_vote storage _launched = launched_map[_selection_id];\n        for(uint i=0; i< _launched.items.length; i++)\n        {\n            for(uint j=0; j<_launched.itemTovoter[_launched.items[i]].length; j++)\n            {\n                if(_launched.itemTovoter[_launched.items[i]][j].name == _UserId)\n                {\n                    size += 1;\n                    break;\n                }\n            }\n        }\n        uint16[] memory record = new uint16[](size);\n        uint16 counter = 0;\n        for(uint16 i=0; i< _launched.items.length; i++)\n        {\n            for(uint j=0; j<_launched.itemTovoter[_launched.items[i]].length; j++)\n            {\n                if(_launched.itemTovoter[_launched.items[i]][j].name == _UserId)\n                {\n                    record[counter] = i;\n                    counter += 1;\n                    break;\n                }\n            }\n        }\n        return record;\n\n    }\n    function launch_vote(address  _id,string memory topic) public {\n        require(idToVoter[_id].launch == false);\n        Voter storage _launcher = idToVoter[_id];\n        _launcher.launch = true;\n        uint16 id = _counter + 1;\n        _counter += 1;\n        _launcher.launched = id;\n        launched_vote memory lv;\n        lv.topic = topic;\n        lv.selection_id = id;\n        lv.vote_available = 0;\n        lv.launcher_address = msg.sender;\n        vote_set.push(id);\n        launched_map[id] = lv;\n    }\n    // uint, string memory , uint, uint\n    function delete_vote(uint16 _selection_id) public set_launch(_selection_id)\n    {\n        launched_vote storage _launched = launched_map[_selection_id];\n        require(_launched.vote_available == 0);\n        idToVoter[_launched.launcher_address].launched = 0;\n        idToVoter[_launched.launcher_address].launch   = false;\n        uint16_array_delete(vote_set, _selection_id);\n    }\n    function read_topic(address  _id) view public returns(uint16, string memory , uint, uint8)\n    {\n        \n        Voter storage _launcher = idToVoter[_id];\n        launched_vote storage _launched = launched_map[_launcher.launched];\n        return (_launched.selection_id, _launched.topic, _launched.items.length, _launched.vote_available);\n    }\n    function read_item(uint16 selection_id, uint16 _index) view public returns(string memory)\n    {\n        launched_vote storage _launched = launched_map[selection_id];\n        return _launched.items[_index];\n    }\n    function read_voter_candidate_num(uint16 _selection_id, string memory _item) view public returns(uint,uint)\n    {\n        launched_vote storage _launched = launched_map[_selection_id];\n        uint vote_num = _launched.itemTovoter[_item].length;\n        uint cand_num = _launched.itemTocand[_item].length;\n        return (vote_num,cand_num);\n    }\n    function read_voter(uint16 _selection_id, string memory _item, uint _index) view public returns(address)\n    {\n        launched_vote storage _launched = launched_map[_selection_id];\n        return _launched.itemTovoter[_item][_index].name;\n    }\n    function read_cand(uint16 _selection_id, string memory _item, uint _index) view public returns(string memory)\n    {\n        launched_vote storage _launched = launched_map[_selection_id];\n        return _launched.itemTocand[_item][_index].name;\n    }\n    modifier set_launch(uint16 _selection_id) {\n        launched_vote storage _launched = launched_map[_selection_id];\n        require((msg.sender == _launched.launcher_address)&&(_launched.vote_available == 0));\n        _;\n    }\n    modifier check_launcher(uint16 _selection_id) {\n        launched_vote storage _launched = launched_map[_selection_id];\n        require(msg.sender == _launched.launcher_address);\n        _;\n    }\n    function SetVoter(uint16 _selection_id, string memory _item,address _ValidVoter) public set_launch(_selection_id){\n        launched_vote storage _launched = launched_map[_selection_id];\n        bool check = false;\n        for(uint i=0; i< _launched.itemTovoter[_item].length; i++){\n            if(_launched.itemTovoter[_item][i].name == _ValidVoter){\n                check = true;\n                break;\n            }\n        }\n        if(!check){\n             _launched.itemTovoter[_item].push(candidate_2(_ValidVoter,_item,0));\n             _launched.ValidList.push(_ValidVoter);\n        }   \n    }\n    function DelVoter(uint16 _selection_id, string memory _item,address  _ValidVoter) public set_launch(_selection_id) {\n        launched_vote storage _launched = launched_map[_selection_id];\n        cand_2_array_delete(_launched.itemTovoter[_item],_ValidVoter);\n        address_array_delete(_launched.ValidList,_ValidVoter);\n    }\n    function SetCandidate(uint16 _selection_id, string memory _item, string memory _cand)  public set_launch(_selection_id) {\n        launched_vote storage _launched = launched_map[_selection_id];\n        bool check = false;\n        for(uint i=0; i< _launched.itemTocand[_item].length; i++){\n            if(string_compare(_launched.itemTocand[_item][i].name,_cand)&&(string_compare(_launched.itemTocand[_item][i].item,_item))) {\n                check = true;\n                break;\n            }\n        }\n        if(!check){\n            _launched.itemTocand[_item].push(candidate(_cand,_item,0));\n        }\n    }\n    function DelCandidate(uint16 _selection_id, string memory _item,string memory _cand) public set_launch(_selection_id) {\n        launched_vote storage _launched = launched_map[_selection_id];\n        cand_array_delete(_launched.itemTocand[_item],_cand);\n    }\n    function SetItem(uint16 _selection_id, string memory _item) public set_launch(_selection_id) {\n        launched_vote storage _launched = launched_map[_selection_id];\n        bool check = false;\n        for(uint i=0; i< _launched.items.length; i++){\n            if(string_compare(_launched.items[i],_item)){\n                check = true;\n                break;\n            }\n        }\n        if(!check){\n            _launched.items.push(_item);\n        }\n    }\n    function DelItem(uint16 _selection_id, string memory _item) public set_launch(_selection_id) {\n        launched_vote storage _launched = launched_map[_selection_id];\n        string_array_delete(_launched.items,_item);\n        bool[] memory record = new bool[](_launched.itemTovoter[_item].length);\n        for(uint i=0; i<record.length; i++)\n        {\n            record[i] = false;\n        }\n        for(uint k=0; k<_launched.itemTovoter[_item].length; k++)\n        {\n            for(uint i=0; i<_launched.items.length; i++)\n            {\n                for(uint j=0; j<_launched.itemTovoter[_launched.items[i]].length; j++)\n                {\n                    if(_launched.itemTovoter[_launched.items[i]][j].name == _launched.itemTovoter[_item][k].name)\n                    {\n                        record[k] = true;\n                    }\n                }\n            }\n        }\n        for(uint i=0; i<record.length; i++)\n        {\n            if(record[i] == false)\n            {\n                address_array_delete(_launched.ValidList,_launched.itemTovoter[_item][i].name);\n            }\n        }\n        _launched.itemTovoter[_item].length = 0;\n        _launched.itemTocand[_item].length = 0;\n    }\n    function SetVoterState(launched_vote storage _launched, address  _ValidVoter) internal {\n        voter_state memory vs;\n        vs.id = _ValidVoter;\n        vs.item = _launched.voterToitems[_ValidVoter];\n        vs.start_check= false;\n        _launched.state_map[_ValidVoter] = vs;\n    }\n    function SetItemToFinal( launched_vote storage _launched,string memory _item) internal {\n        initial_result_item(_launched.vote_result,_item);\n    }\n    function SetCandidateToFinal( launched_vote storage _launched, string memory _item,string memory _cand) internal {\n        initial_result_cand(_launched.vote_result, _item,_cand);\n    }\n\n    function set_vote_end(uint16 _selection_id) public check_launcher(_selection_id) {\n        launched_vote storage _launched = launched_map[_selection_id];\n        _launched.vote_available = 2;\n        idToVoter[_launched.launcher_address].launch = false; \n    }\n    function set_vote_start(uint16 _selection_id) public set_launch(_selection_id) {\n        launched_vote storage _launched = launched_map[_selection_id];\n        for(uint i=0; i< _launched.items.length; i++){\n            SetItemToFinal(_launched,_launched.items[i]);\n            for(uint j=0; j<_launched.itemTocand[_launched.items[i]].length; j++){\n                SetCandidateToFinal(_launched,_launched.items[i],_launched.itemTocand[_launched.items[i]][j].name);\n            }\n            for(uint j=0; j<_launched.itemTovoter[_launched.items[i]].length; j++){\n                _launched.voterToitems[_launched.itemTovoter[_launched.items[i]][j].name].push(_launched.items[i]);\n            }\n        }\n        for(uint i=0; i< _launched.ValidList.length; i++){\n            SetVoterState( _launched, _launched.ValidList[i]);\n        }\n        _launched.vote_available = 1;\n        for(uint i=0; i<_launched.ValidList.length; i++)\n        {\n            require(launched_map[_selection_id].vote_available == 1);\n            voter_state storage _state = find_voterstate(_launched, _launched.ValidList[i]);\n            for(uint j=0; j< _state.item.length; j++){\n                _state.ballots[_state.item[j]] = ballot(\" \", _state.item[j],false);\n            }\n            _state.ballots_check = true;\n        }\n    }\n    function find_state(uint16 _selection_id) view public returns(uint8)\n    {\n        return launched_map[_selection_id].vote_available;\n    }\n    function find_voterstate(launched_vote storage _launched, address  _UserId) view internal returns( voter_state storage _state) {\n        return _launched.state_map[_UserId];\n    }\n    function CreateNewAccount(address _adrs) public { \n        _createNewVoter(_adrs);\n    }\n\n    function send_ballot(uint16 _selection_id,address _UserId, string memory _item, string memory _cand) public {\n        launched_vote storage _launched = launched_map[_selection_id];\n        voter_state storage _state = find_voterstate(_launched, _UserId);\n        require(_state.ballots_check == true);\n        require(_state.ballots[_item].sent == false);  \n         _state.ballots[_item].candidate = _cand;\n        update_result(_launched.vote_result,_state.ballots[_item]);\n        _state.ballots[_item].sent = true;\n    }\n    function view_result(uint16 _selection_id, string memory _item,string memory _candidate) view public returns(uint) {\n        launched_vote storage _launched = launched_map[_selection_id];\n        for(uint i=0; i< _launched.vote_result.final_result[_item].length; i++){\n            if(string_compare(_launched.vote_result.final_result[_item][i].name,_candidate)){\n                return (_launched.vote_result.final_result[_item][i].num);\n            }\n        }\n        return 0;\n    }\n}\n\n\n\n\n",
  "sourcePath": "/Users/ray/Desktop/junior2/NM/DAPP-GoVote/contracts/system_proccess.sol",
  "compiler": {
    "name": "solc",
    "version": "0.5.16+commit.9c3226ce.Emscripten.clang"
  },
  "schemaVersion": "3.1.0",
  "updatedAt": "2020-06-24T09:17:33.180Z",
  "networkType": "ethereum",
  "devdoc": {
    "methods": {}
  },
  "userdoc": {
    "methods": {}
  }
}