{
  "contractName": "VoterAccount",
  "abi": [
    {
      "constant": false,
      "inputs": [
        {
          "internalType": "address",
          "name": "_adrs",
          "type": "address"
        }
      ],
      "name": "_createNewVoter",
      "outputs": [],
      "payable": false,
      "stateMutability": "nonpayable",
      "type": "function"
    }
  ],
  "bytecode": "0x608060405234801561001057600080fd5b506102d4806100206000396000f3fe608060405234801561001057600080fd5b506004361061002b5760003560e01c8063bf30287614610030575b600080fd5b6100726004803603602081101561004657600080fd5b81019080803573ffffffffffffffffffffffffffffffffffffffff169060200190929190505050610074565b005b60001515600260008373ffffffffffffffffffffffffffffffffffffffff1673ffffffffffffffffffffffffffffffffffffffff16815260200190815260200160002060009054906101000a900460ff161515141561029c5760405180608001604052808273ffffffffffffffffffffffffffffffffffffffff16815260200160008152602001600015158152602001600015158152506000808373ffffffffffffffffffffffffffffffffffffffff1673ffffffffffffffffffffffffffffffffffffffff16815260200190815260200160002060008201518160000160006101000a81548173ffffffffffffffffffffffffffffffffffffffff021916908373ffffffffffffffffffffffffffffffffffffffff1602179055506020820151816001015560408201518160020160006101000a81548160ff02191690831515021790555060608201518160020160016101000a81548160ff0219169083151502179055509050506001600260008373ffffffffffffffffffffffffffffffffffffffff1673ffffffffffffffffffffffffffffffffffffffff16815260200190815260200160002060006101000a81548160ff02191690831515021790555060018190806001815401808255809150509060018203906000526020600020016000909192909190916101000a81548173ffffffffffffffffffffffffffffffffffffffff021916908373ffffffffffffffffffffffffffffffffffffffff160217905550505b5056fea265627a7a72315820199245344fc9cd7218a088983e7671bba7829c16e38b211efc6e56cf70f1f27564736f6c63430005100032",
  "source": "pragma solidity >=0.5.0 <0.6.0;\r\ncontract VoterAccount {\r\n\t//using strings for *;\r\n\tstruct Voter {\r\n\t\taddress id;\t\t\t//id of the voter\r\n\t\tuint launched;\r\n\t\tbool hasvoted;\t\t//whether or not the voter has voted\r\n\t\tbool launch;\r\n\t}\r\n\tmapping (address => Voter) idToVoter;\r\n\taddress[] member_id;\r\n\tmapping (address => bool) hasregistered;\r\n\r\n\tfunction _createNewVoter(address _adrs) public {\r\n\t\tif(hasregistered[_adrs] == false)\r\n\t\t{\r\n\t\t\tidToVoter[_adrs] = Voter(_adrs, 0, false, false);\r\n\t\t\thasregistered[_adrs] = true;\r\n\t\t\tmember_id.push(_adrs);\r\n\t\t}\r\n\t}\r\n}\r\n",
  "sourcePath": "/Users/ray/Desktop/junior2/NM/DAPP-GoVote/contracts/voter_account.sol",
  "compiler": {
    "name": "solc",
    "version": "0.5.16+commit.9c3226ce.Emscripten.clang"
  },
  "schemaVersion": "3.1.0",
  "updatedAt": "2020-06-24T09:17:31.285Z",
  "networkType": "ethereum",
  "devdoc": {
    "methods": {}
  },
  "userdoc": {
    "methods": {}
  }
}